{
  "_format": "hh-sol-artifact-1",
  "contractName": "StudentPortal",
  "sourceName": "contracts/StudentPortal.sol",
  "abi": [
    {
      "inputs": [],
      "stateMutability": "nonpayable",
      "type": "constructor"
    },
    {
      "anonymous": false,
      "inputs": [],
      "name": "CreateStudent",
      "type": "event"
    },
    {
      "anonymous": false,
      "inputs": [
        {
          "indexed": true,
          "internalType": "uint256",
          "name": "studentId",
          "type": "uint256"
        }
      ],
      "name": "DeleteStudent",
      "type": "event"
    },
    {
      "anonymous": false,
      "inputs": [
        {
          "indexed": true,
          "internalType": "uint256",
          "name": "studentId",
          "type": "uint256"
        },
        {
          "indexed": false,
          "internalType": "string",
          "name": "name",
          "type": "string"
        },
        {
          "indexed": false,
          "internalType": "string",
          "name": "dob",
          "type": "string"
        }
      ],
      "name": "UpdateStudent",
      "type": "event"
    },
    {
      "inputs": [
        {
          "internalType": "string",
          "name": "_name",
          "type": "string"
        },
        {
          "internalType": "string",
          "name": "_email",
          "type": "string"
        },
        {
          "internalType": "string",
          "name": "_dob",
          "type": "string"
        },
        {
          "internalType": "string",
          "name": "_lga",
          "type": "string"
        },
        {
          "internalType": "string",
          "name": "_country",
          "type": "string"
        },
        {
          "internalType": "string",
          "name": "_state",
          "type": "string"
        }
      ],
      "name": "createStudent",
      "outputs": [],
      "stateMutability": "nonpayable",
      "type": "function"
    },
    {
      "inputs": [
        {
          "internalType": "uint256",
          "name": "_index",
          "type": "uint256"
        }
      ],
      "name": "deleteStudentInfo",
      "outputs": [],
      "stateMutability": "nonpayable",
      "type": "function"
    },
    {
      "inputs": [],
      "name": "getAllStudents",
      "outputs": [
        {
          "components": [
            {
              "internalType": "string",
              "name": "name",
              "type": "string"
            },
            {
              "internalType": "string",
              "name": "email",
              "type": "string"
            },
            {
              "internalType": "string",
              "name": "dob",
              "type": "string"
            },
            {
              "internalType": "string",
              "name": "lga",
              "type": "string"
            },
            {
              "internalType": "string",
              "name": "country",
              "type": "string"
            },
            {
              "internalType": "string",
              "name": "state",
              "type": "string"
            }
          ],
          "internalType": "struct StudentPortal.Student[]",
          "name": "",
          "type": "tuple[]"
        }
      ],
      "stateMutability": "view",
      "type": "function"
    },
    {
      "inputs": [
        {
          "internalType": "uint256",
          "name": "_index",
          "type": "uint256"
        }
      ],
      "name": "getStudentByIndex",
      "outputs": [
        {
          "components": [
            {
              "internalType": "string",
              "name": "name",
              "type": "string"
            },
            {
              "internalType": "string",
              "name": "email",
              "type": "string"
            },
            {
              "internalType": "string",
              "name": "dob",
              "type": "string"
            },
            {
              "internalType": "string",
              "name": "lga",
              "type": "string"
            },
            {
              "internalType": "string",
              "name": "country",
              "type": "string"
            },
            {
              "internalType": "string",
              "name": "state",
              "type": "string"
            }
          ],
          "internalType": "struct StudentPortal.Student",
          "name": "",
          "type": "tuple"
        }
      ],
      "stateMutability": "view",
      "type": "function"
    },
    {
      "inputs": [],
      "name": "owner",
      "outputs": [
        {
          "internalType": "address",
          "name": "",
          "type": "address"
        }
      ],
      "stateMutability": "view",
      "type": "function"
    },
    {
      "inputs": [
        {
          "internalType": "uint256",
          "name": "_index",
          "type": "uint256"
        },
        {
          "internalType": "string",
          "name": "_name",
          "type": "string"
        },
        {
          "internalType": "string",
          "name": "_dob",
          "type": "string"
        }
      ],
      "name": "updateStudentBio",
      "outputs": [],
      "stateMutability": "nonpayable",
      "type": "function"
    }
  ],
  "bytecode": "0x608060405234801561001057600080fd5b50336000806101000a81548173ffffffffffffffffffffffffffffffffffffffff021916908373ffffffffffffffffffffffffffffffffffffffff160217905550611c7b806100606000396000f3fe608060405234801561001057600080fd5b50600436106100625760003560e01c80631ec4779a14610067578063783648d7146100835780638da5cb5b1461009f578063c39ce3ea146100bd578063dc78302b146100d9578063e9e3092714610109575b600080fd5b610081600480360381019061007c91906110f5565b610127565b005b61009d60048036038101906100989190611180565b6102f4565b005b6100a761049a565b6040516100b491906112f6565b60405180910390f35b6100d760048036038101906100d29190611311565b6104be565b005b6100f360048036038101906100ee9190611311565b61070c565b6040516101009190611469565b60405180910390f35b610111610abd565b60405161011e91906115f9565b60405180910390f35b3373ffffffffffffffffffffffffffffffffffffffff1660008054906101000a900473ffffffffffffffffffffffffffffffffffffffff1673ffffffffffffffffffffffffffffffffffffffff16146101b5576040517f08c379a00000000000000000000000000000000000000000000000000000000081526004016101ac90611678565b60405180910390fd5b6101be83610e88565b6000600184815481106101d4576101d3611698565b5b90600052602060002090600602019050828160000190816101f591906118d3565b508181600201908161020791906118d3565b5060018190806001815401808255809150506001900390600052602060002090600602016000909190919091506000820181600001908161024891906119bb565b506001820181600101908161025d91906119bb565b506002820181600201908161027291906119bb565b506003820181600301908161028791906119bb565b506004820181600401908161029c91906119bb565b50600582018160050190816102b191906119bb565b505050837fb7d312b095221e7157e043ac5856d3c060324b3bebda40b7ae37199b3f9469f784846040516102e6929190611adc565b60405180910390a250505050565b3373ffffffffffffffffffffffffffffffffffffffff1660008054906101000a900473ffffffffffffffffffffffffffffffffffffffff1673ffffffffffffffffffffffffffffffffffffffff1614610382576040517f08c379a000000000000000000000000000000000000000000000000000000000815260040161037990611678565b60405180910390fd5b60006040518060c00160405280888152602001878152602001868152602001858152602001848152602001838152509050600181908060018154018082558091505060019003906000526020600020906006020160009091909190915060008201518160000190816103f491906118d3565b50602082015181600101908161040a91906118d3565b50604082015181600201908161042091906118d3565b50606082015181600301908161043691906118d3565b50608082015181600401908161044c91906118d3565b5060a082015181600501908161046291906118d3565b5050507f45bfb8647175ca4d0604bfdd4d13ed5dd3b6fad4760e9daf076a23cf4f0683f260405160405180910390a150505050505050565b60008054906101000a900473ffffffffffffffffffffffffffffffffffffffff1681565b3373ffffffffffffffffffffffffffffffffffffffff1660008054906101000a900473ffffffffffffffffffffffffffffffffffffffff1673ffffffffffffffffffffffffffffffffffffffff161461054c576040517f08c379a000000000000000000000000000000000000000000000000000000000815260040161054390611678565b60405180910390fd5b61055581610e88565b60008190505b6001808054905061056c9190611b42565b81101561065057600180826105819190611b76565b8154811061059257610591611698565b5b9060005260206000209060060201600182815481106105b4576105b3611698565b5b9060005260206000209060060201600082018160000190816105d691906119bb565b50600182018160010190816105eb91906119bb565b506002820181600201908161060091906119bb565b506003820181600301908161061591906119bb565b506004820181600401908161062a91906119bb565b506005820181600501908161063f91906119bb565b50905050808060010191505061055b565b50600180548061066357610662611baa565b5b6001900381819060005260206000209060060201600080820160006106889190610ed2565b6001820160006106989190610ed2565b6002820160006106a89190610ed2565b6003820160006106b89190610ed2565b6004820160006106c89190610ed2565b6005820160006106d89190610ed2565b50509055807f534a93a4eed42147ca478fe34e69831009cc41645dc962505c50f4cca8e4b0bb60405160405180910390a250565b610714610f12565b61071d82610e88565b6001828154811061073157610730611698565b5b90600052602060002090600602016040518060c001604052908160008201805461075a906116f6565b80601f0160208091040260200160405190810160405280929190818152602001828054610786906116f6565b80156107d35780601f106107a8576101008083540402835291602001916107d3565b820191906000526020600020905b8154815290600101906020018083116107b657829003601f168201915b505050505081526020016001820180546107ec906116f6565b80601f0160208091040260200160405190810160405280929190818152602001828054610818906116f6565b80156108655780601f1061083a57610100808354040283529160200191610865565b820191906000526020600020905b81548152906001019060200180831161084857829003601f168201915b5050505050815260200160028201805461087e906116f6565b80601f01602080910402602001604051908101604052809291908181526020018280546108aa906116f6565b80156108f75780601f106108cc576101008083540402835291602001916108f7565b820191906000526020600020905b8154815290600101906020018083116108da57829003601f168201915b50505050508152602001600382018054610910906116f6565b80601f016020809104026020016040519081016040528092919081815260200182805461093c906116f6565b80156109895780601f1061095e57610100808354040283529160200191610989565b820191906000526020600020905b81548152906001019060200180831161096c57829003601f168201915b505050505081526020016004820180546109a2906116f6565b80601f01602080910402602001604051908101604052809291908181526020018280546109ce906116f6565b8015610a1b5780601f106109f057610100808354040283529160200191610a1b565b820191906000526020600020905b8154815290600101906020018083116109fe57829003601f168201915b50505050508152602001600582018054610a34906116f6565b80601f0160208091040260200160405190810160405280929190818152602001828054610a60906116f6565b8015610aad5780601f10610a8257610100808354040283529160200191610aad565b820191906000526020600020905b815481529060010190602001808311610a9057829003601f168201915b5050505050815250509050919050565b60606001805480602002602001604051908101604052809291908181526020016000905b82821015610e7f57838290600052602060002090600602016040518060c0016040529081600082018054610b14906116f6565b80601f0160208091040260200160405190810160405280929190818152602001828054610b40906116f6565b8015610b8d5780601f10610b6257610100808354040283529160200191610b8d565b820191906000526020600020905b815481529060010190602001808311610b7057829003601f168201915b50505050508152602001600182018054610ba6906116f6565b80601f0160208091040260200160405190810160405280929190818152602001828054610bd2906116f6565b8015610c1f5780601f10610bf457610100808354040283529160200191610c1f565b820191906000526020600020905b815481529060010190602001808311610c0257829003601f168201915b50505050508152602001600282018054610c38906116f6565b80601f0160208091040260200160405190810160405280929190818152602001828054610c64906116f6565b8015610cb15780601f10610c8657610100808354040283529160200191610cb1565b820191906000526020600020905b815481529060010190602001808311610c9457829003601f168201915b50505050508152602001600382018054610cca906116f6565b80601f0160208091040260200160405190810160405280929190818152602001828054610cf6906116f6565b8015610d435780601f10610d1857610100808354040283529160200191610d43565b820191906000526020600020905b815481529060010190602001808311610d2657829003601f168201915b50505050508152602001600482018054610d5c906116f6565b80601f0160208091040260200160405190810160405280929190818152602001828054610d88906116f6565b8015610dd55780601f10610daa57610100808354040283529160200191610dd5565b820191906000526020600020905b815481529060010190602001808311610db857829003601f168201915b50505050508152602001600582018054610dee906116f6565b80601f0160208091040260200160405190810160405280929190818152602001828054610e1a906116f6565b8015610e675780601f10610e3c57610100808354040283529160200191610e67565b820191906000526020600020905b815481529060010190602001808311610e4a57829003601f168201915b50505050508152505081526020019060010190610ae1565b50505050905090565b6001805490508110610ecf576040517f08c379a0000000000000000000000000000000000000000000000000000000008152600401610ec690611c25565b60405180910390fd5b50565b508054610ede906116f6565b6000825580601f10610ef05750610f0f565b601f016020900490600052602060002090810190610f0e9190610f48565b5b50565b6040518060c001604052806060815260200160608152602001606081526020016060815260200160608152602001606081525090565b5b80821115610f61576000816000905550600101610f49565b5090565b6000604051905090565b600080fd5b600080fd5b6000819050919050565b610f8c81610f79565b8114610f9757600080fd5b50565b600081359050610fa981610f83565b92915050565b600080fd5b600080fd5b6000601f19601f8301169050919050565b7f4e487b7100000000000000000000000000000000000000000000000000000000600052604160045260246000fd5b61100282610fb9565b810181811067ffffffffffffffff8211171561102157611020610fca565b5b80604052505050565b6000611034610f65565b90506110408282610ff9565b919050565b600067ffffffffffffffff8211156110605761105f610fca565b5b61106982610fb9565b9050602081019050919050565b82818337600083830152505050565b600061109861109384611045565b61102a565b9050828152602081018484840111156110b4576110b3610fb4565b5b6110bf848285611076565b509392505050565b600082601f8301126110dc576110db610faf565b5b81356110ec848260208601611085565b91505092915050565b60008060006060848603121561110e5761110d610f6f565b5b600061111c86828701610f9a565b935050602084013567ffffffffffffffff81111561113d5761113c610f74565b5b611149868287016110c7565b925050604084013567ffffffffffffffff81111561116a57611169610f74565b5b611176868287016110c7565b9150509250925092565b60008060008060008060c0878903121561119d5761119c610f6f565b5b600087013567ffffffffffffffff8111156111bb576111ba610f74565b5b6111c789828a016110c7565b965050602087013567ffffffffffffffff8111156111e8576111e7610f74565b5b6111f489828a016110c7565b955050604087013567ffffffffffffffff81111561121557611214610f74565b5b61122189828a016110c7565b945050606087013567ffffffffffffffff81111561124257611241610f74565b5b61124e89828a016110c7565b935050608087013567ffffffffffffffff81111561126f5761126e610f74565b5b61127b89828a016110c7565b92505060a087013567ffffffffffffffff81111561129c5761129b610f74565b5b6112a889828a016110c7565b9150509295509295509295565b600073ffffffffffffffffffffffffffffffffffffffff82169050919050565b60006112e0826112b5565b9050919050565b6112f0816112d5565b82525050565b600060208201905061130b60008301846112e7565b92915050565b60006020828403121561132757611326610f6f565b5b600061133584828501610f9a565b91505092915050565b600081519050919050565b600082825260208201905092915050565b60005b8381101561137857808201518184015260208101905061135d565b60008484015250505050565b600061138f8261133e565b6113998185611349565b93506113a981856020860161135a565b6113b281610fb9565b840191505092915050565b600060c08301600083015184820360008601526113da8282611384565b915050602083015184820360208601526113f48282611384565b9150506040830151848203604086015261140e8282611384565b915050606083015184820360608601526114288282611384565b915050608083015184820360808601526114428282611384565b91505060a083015184820360a086015261145c8282611384565b9150508091505092915050565b6000602082019050818103600083015261148381846113bd565b905092915050565b600081519050919050565b600082825260208201905092915050565b6000819050602082019050919050565b600060c08301600083015184820360008601526114d48282611384565b915050602083015184820360208601526114ee8282611384565b915050604083015184820360408601526115088282611384565b915050606083015184820360608601526115228282611384565b9150506080830151848203608086015261153c8282611384565b91505060a083015184820360a08601526115568282611384565b9150508091505092915050565b600061156f83836114b7565b905092915050565b6000602082019050919050565b600061158f8261148b565b6115998185611496565b9350836020820285016115ab856114a7565b8060005b858110156115e757848403895281516115c88582611563565b94506115d383611577565b925060208a019950506001810190506115af565b50829750879550505050505092915050565b600060208201905081810360008301526116138184611584565b905092915050565b600082825260208201905092915050565b7f596f7520617265206e6f7420746865206f776e65722100000000000000000000600082015250565b600061166260168361161b565b915061166d8261162c565b602082019050919050565b6000602082019050818103600083015261169181611655565b9050919050565b7f4e487b7100000000000000000000000000000000000000000000000000000000600052603260045260246000fd5b7f4e487b7100000000000000000000000000000000000000000000000000000000600052602260045260246000fd5b6000600282049050600182168061170e57607f821691505b602082108103611721576117206116c7565b5b50919050565b60008190508160005260206000209050919050565b60006020601f8301049050919050565b600082821b905092915050565b6000600883026117897fffffffffffffffffffffffffffffffffffffffffffffffffffffffffffffffff8261174c565b611793868361174c565b95508019841693508086168417925050509392505050565b6000819050919050565b60006117d06117cb6117c684610f79565b6117ab565b610f79565b9050919050565b6000819050919050565b6117ea836117b5565b6117fe6117f6826117d7565b848454611759565b825550505050565b600090565b611813611806565b61181e8184846117e1565b505050565b5b818110156118425761183760008261180b565b600181019050611824565b5050565b601f8211156118875761185881611727565b6118618461173c565b81016020851015611870578190505b61188461187c8561173c565b830182611823565b50505b505050565b600082821c905092915050565b60006118aa6000198460080261188c565b1980831691505092915050565b60006118c38383611899565b9150826002028217905092915050565b6118dc8261133e565b67ffffffffffffffff8111156118f5576118f4610fca565b5b6118ff82546116f6565b61190a828285611846565b600060209050601f83116001811461193d576000841561192b578287015190505b61193585826118b7565b86555061199d565b601f19841661194b86611727565b60005b828110156119735784890151825560018201915060208501945060208101905061194e565b86831015611990578489015161198c601f891682611899565b8355505b6001600288020188555050505b505050505050565b6000815490506119b4816116f6565b9050919050565b8181036119c9575050611aa1565b6119d2826119a5565b67ffffffffffffffff8111156119eb576119ea610fca565b5b6119f582546116f6565b611a00828285611846565b6000601f831160018114611a2f5760008415611a1d578287015490505b611a2785826118b7565b865550611a9a565b601f198416611a3d87611727565b9650611a4886611727565b60005b82811015611a7057848901548255600182019150600185019450602081019050611a4b565b86831015611a8d5784890154611a89601f891682611899565b8355505b6001600288020188555050505b5050505050505b565b6000611aae8261133e565b611ab8818561161b565b9350611ac881856020860161135a565b611ad181610fb9565b840191505092915050565b60006040820190508181036000830152611af68185611aa3565b90508181036020830152611b0a8184611aa3565b90509392505050565b7f4e487b7100000000000000000000000000000000000000000000000000000000600052601160045260246000fd5b6000611b4d82610f79565b9150611b5883610f79565b9250828203905081811115611b7057611b6f611b13565b5b92915050565b6000611b8182610f79565b9150611b8c83610f79565b9250828201905080821115611ba457611ba3611b13565b5b92915050565b7f4e487b7100000000000000000000000000000000000000000000000000000000600052603160045260246000fd5b7f496e646578206f7574206f662072616e67652100000000000000000000000000600082015250565b6000611c0f60138361161b565b9150611c1a82611bd9565b602082019050919050565b60006020820190508181036000830152611c3e81611c02565b905091905056fea264697066735822122016e8ee0aaad6fb6719e251dc19bf8055abc4c411e18d8fdd9dab7b534b0e5dae64736f6c63430008180033",
  "linkReferences": {},
  "deployedLinkReferences": {}
}